{"abi":[{"type":"constructor","inputs":[{"name":"_ugxUsdFeed","type":"address","internalType":"address"},{"name":"_liquidToken","type":"address","internalType":"address"}],"stateMutability":"nonpayable"},{"type":"function","name":"ANNUAL_INTEREST_BPS","inputs":[],"outputs":[{"name":"","type":"uint256","internalType":"uint256"}],"stateMutability":"view"},{"type":"function","name":"BORROW_LIMIT_BPS","inputs":[],"outputs":[{"name":"","type":"uint256","internalType":"uint256"}],"stateMutability":"view"},{"type":"function","name":"BPS_DENOMINATOR","inputs":[],"outputs":[{"name":"","type":"uint256","internalType":"uint256"}],"stateMutability":"view"},{"type":"function","name":"FEE_BPS","inputs":[],"outputs":[{"name":"","type":"uint256","internalType":"uint256"}],"stateMutability":"view"},{"type":"function","name":"INTEREST_INTERVAL","inputs":[],"outputs":[{"name":"","type":"uint256","internalType":"uint256"}],"stateMutability":"view"},{"type":"function","name":"WITHDRAW_BONUS_BPS","inputs":[],"outputs":[{"name":"","type":"uint256","internalType":"uint256"}],"stateMutability":"view"},{"type":"function","name":"accrueInterest","inputs":[{"name":"userId","type":"bytes32","internalType":"bytes32"}],"outputs":[],"stateMutability":"nonpayable"},{"type":"function","name":"checkUpkeep","inputs":[{"name":"","type":"bytes","internalType":"bytes"}],"outputs":[{"name":"upkeepNeeded","type":"bool","internalType":"bool"},{"name":"","type":"bytes","internalType":"bytes"}],"stateMutability":"view"},{"type":"function","name":"convertFeesAndStake","inputs":[{"name":"mockLiquidPrice","type":"uint256","internalType":"uint256"}],"outputs":[],"stateMutability":"nonpayable"},{"type":"function","name":"emitUserState","inputs":[{"name":"userId","type":"bytes32","internalType":"bytes32"}],"outputs":[],"stateMutability":"nonpayable"},{"type":"function","name":"getUGXtoUSD","inputs":[],"outputs":[{"name":"price","type":"uint256","internalType":"uint256"},{"name":"decimals","type":"uint8","internalType":"uint8"}],"stateMutability":"view"},{"type":"function","name":"isLiquidatable","inputs":[{"name":"userId","type":"bytes32","internalType":"bytes32"}],"outputs":[{"name":"","type":"bool","internalType":"bool"}],"stateMutability":"view"},{"type":"function","name":"lastGlobalInterestRun","inputs":[],"outputs":[{"name":"","type":"uint256","internalType":"uint256"}],"stateMutability":"view"},{"type":"function","name":"liquidToken","inputs":[],"outputs":[{"name":"","type":"address","internalType":"contract IMockLiquid"}],"stateMutability":"view"},{"type":"function","name":"liquidate","inputs":[{"name":"userId","type":"bytes32","internalType":"bytes32"}],"outputs":[],"stateMutability":"nonpayable"},{"type":"function","name":"maxBorrowable","inputs":[{"name":"userId","type":"bytes32","internalType":"bytes32"}],"outputs":[{"name":"","type":"uint256","internalType":"uint256"}],"stateMutability":"view"},{"type":"function","name":"owner","inputs":[],"outputs":[{"name":"","type":"address","internalType":"address"}],"stateMutability":"view"},{"type":"function","name":"performUpkeep","inputs":[{"name":"","type":"bytes","internalType":"bytes"}],"outputs":[],"stateMutability":"nonpayable"},{"type":"function","name":"protocolFeePool","inputs":[],"outputs":[{"name":"","type":"uint256","internalType":"uint256"}],"stateMutability":"view"},{"type":"function","name":"protocolLiquidBalance","inputs":[],"outputs":[{"name":"","type":"uint256","internalType":"uint256"}],"stateMutability":"view"},{"type":"function","name":"recordDeposit","inputs":[{"name":"userId","type":"bytes32","internalType":"bytes32"},{"name":"amount","type":"uint256","internalType":"uint256"}],"outputs":[],"stateMutability":"nonpayable"},{"type":"function","name":"registerUser","inputs":[{"name":"userId","type":"bytes32","internalType":"bytes32"}],"outputs":[],"stateMutability":"nonpayable"},{"type":"function","name":"repayLoan","inputs":[{"name":"userId","type":"bytes32","internalType":"bytes32"},{"name":"amount","type":"uint256","internalType":"uint256"}],"outputs":[],"stateMutability":"nonpayable"},{"type":"function","name":"requestLoan","inputs":[{"name":"userId","type":"bytes32","internalType":"bytes32"},{"name":"amount","type":"uint256","internalType":"uint256"}],"outputs":[],"stateMutability":"nonpayable"},{"type":"function","name":"totalLiquidStaked","inputs":[],"outputs":[{"name":"","type":"uint256","internalType":"uint256"}],"stateMutability":"view"},{"type":"function","name":"ugxUsdFeed","inputs":[],"outputs":[{"name":"","type":"address","internalType":"contract AggregatorV3Interface"}],"stateMutability":"view"},{"type":"function","name":"users","inputs":[{"name":"","type":"bytes32","internalType":"bytes32"}],"outputs":[{"name":"depositBalance","type":"uint256","internalType":"uint256"},{"name":"stakedBalance","type":"uint256","internalType":"uint256"},{"name":"loanDebt","type":"uint256","internalType":"uint256"},{"name":"lastAccrual","type":"uint256","internalType":"uint256"},{"name":"agent","type":"address","internalType":"address"},{"name":"exists","type":"bool","internalType":"bool"}],"stateMutability":"view"},{"type":"function","name":"withdraw","inputs":[{"name":"userId","type":"bytes32","internalType":"bytes32"},{"name":"amount","type":"uint256","internalType":"uint256"},{"name":"to","type":"address","internalType":"address"}],"outputs":[],"stateMutability":"nonpayable"},{"type":"event","name":"DepositRecorded","inputs":[{"name":"userId","type":"bytes32","indexed":true,"internalType":"bytes32"},{"name":"agent","type":"address","indexed":true,"internalType":"address"},{"name":"grossAmount","type":"uint256","indexed":false,"internalType":"uint256"},{"name":"feeAmount","type":"uint256","indexed":false,"internalType":"uint256"},{"name":"netAmount","type":"uint256","indexed":false,"internalType":"uint256"}],"anonymous":false},{"type":"event","name":"FeesConvertedToLiquid","inputs":[{"name":"usdtAmount","type":"uint256","indexed":false,"internalType":"uint256"},{"name":"liquidAmount","type":"uint256","indexed":false,"internalType":"uint256"},{"name":"priceUsed","type":"uint256","indexed":false,"internalType":"uint256"},{"name":"timestamp","type":"uint256","indexed":false,"internalType":"uint256"}],"anonymous":false},{"type":"event","name":"InterestAccrued","inputs":[{"name":"userId","type":"bytes32","indexed":true,"internalType":"bytes32"},{"name":"interestAmount","type":"uint256","indexed":false,"internalType":"uint256"},{"name":"newDebt","type":"uint256","indexed":false,"internalType":"uint256"},{"name":"timestamp","type":"uint256","indexed":false,"internalType":"uint256"}],"anonymous":false},{"type":"event","name":"LiquidStaked","inputs":[{"name":"amount","type":"uint256","indexed":false,"internalType":"uint256"},{"name":"totalStaked","type":"uint256","indexed":false,"internalType":"uint256"}],"anonymous":false},{"type":"event","name":"LoanIssued","inputs":[{"name":"userId","type":"bytes32","indexed":true,"internalType":"bytes32"},{"name":"amount","type":"uint256","indexed":false,"internalType":"uint256"},{"name":"totalDebt","type":"uint256","indexed":false,"internalType":"uint256"}],"anonymous":false},{"type":"event","name":"LoanRepaid","inputs":[{"name":"userId","type":"bytes32","indexed":true,"internalType":"bytes32"},{"name":"amount","type":"uint256","indexed":false,"internalType":"uint256"},{"name":"remainingDebt","type":"uint256","indexed":false,"internalType":"uint256"}],"anonymous":false},{"type":"event","name":"LoanRequested","inputs":[{"name":"userId","type":"bytes32","indexed":true,"internalType":"bytes32"},{"name":"amount","type":"uint256","indexed":false,"internalType":"uint256"}],"anonymous":false},{"type":"event","name":"ProtocolFeeAccumulated","inputs":[{"name":"newFee","type":"uint256","indexed":false,"internalType":"uint256"},{"name":"totalPool","type":"uint256","indexed":false,"internalType":"uint256"}],"anonymous":false},{"type":"event","name":"ProtocolLiquidBalanceUpdated","inputs":[{"name":"newBalance","type":"uint256","indexed":false,"internalType":"uint256"},{"name":"timestamp","type":"uint256","indexed":false,"internalType":"uint256"}],"anonymous":false},{"type":"event","name":"UserLiquidated","inputs":[{"name":"userId","type":"bytes32","indexed":true,"internalType":"bytes32"},{"name":"debtCleared","type":"uint256","indexed":false,"internalType":"uint256"},{"name":"collateralSeized","type":"uint256","indexed":false,"internalType":"uint256"},{"name":"timestamp","type":"uint256","indexed":false,"internalType":"uint256"}],"anonymous":false},{"type":"event","name":"UserRegistered","inputs":[{"name":"userId","type":"bytes32","indexed":true,"internalType":"bytes32"},{"name":"agent","type":"address","indexed":true,"internalType":"address"},{"name":"timestamp","type":"uint256","indexed":false,"internalType":"uint256"}],"anonymous":false},{"type":"event","name":"UserStateViewed","inputs":[{"name":"userId","type":"bytes32","indexed":true,"internalType":"bytes32"},{"name":"deposit","type":"uint256","indexed":false,"internalType":"uint256"},{"name":"debt","type":"uint256","indexed":false,"internalType":"uint256"},{"name":"timestamp","type":"uint256","indexed":false,"internalType":"uint256"}],"anonymous":false},{"type":"event","name":"WithdrawalProcessed","inputs":[{"name":"userId","type":"bytes32","indexed":true,"internalType":"bytes32"},{"name":"to","type":"address","indexed":true,"internalType":"address"},{"name":"amount","type":"uint256","indexed":false,"internalType":"uint256"}],"anonymous":false},{"type":"error","name":"OnlySimulatedBackend","inputs":[]}],"bytecode":{"object":"0x608060405234801561000f575f5ffd5b506040516126d33803806126d383398181016040528101906100319190610156565b3360035f6101000a81548173ffffffffffffffffffffffffffffffffffffffff021916908373ffffffffffffffffffffffffffffffffffffffff1602179055508160015f6101000a81548173ffffffffffffffffffffffffffffffffffffffff021916908373ffffffffffffffffffffffffffffffffffffffff1602179055508060025f6101000a81548173ffffffffffffffffffffffffffffffffffffffff021916908373ffffffffffffffffffffffffffffffffffffffff1602179055505050610194565b5f5ffd5b5f73ffffffffffffffffffffffffffffffffffffffff82169050919050565b5f610125826100fc565b9050919050565b6101358161011b565b811461013f575f5ffd5b50565b5f815190506101508161012c565b92915050565b5f5f6040838503121561016c5761016b6100f8565b5b5f61017985828601610142565b925050602061018a85828601610142565b9150509250929050565b612532806101a15f395ff3fe608060405234801561000f575f5ffd5b50600436106101c2575f3560e01c80636b13da09116100f7578063bf333f2c11610095578063e1a452181161006f578063e1a45218146104c0578063f060eb13146104de578063f79b6707146104fa578063f8a409751461052a576101c2565b8063bf333f2c14610451578063c5edf84b1461046f578063cea6ab981461048b576101c2565b80638afa50cd116100d15780638afa50cd146103d95780638da5cb5b146103f7578063a4a6224714610415578063b5f397e714610433576101c2565b80636b13da091461036e5780636e04ff0d1461038c5780638972103c146103bd576101c2565b8063355f8990116101645780633ad38d8e1161013e5780633ad38d8e146102fa5780633adab09c146103185780634585e33b1461033457806366cd5dc714610350576101c2565b8063355f89901461028e57806336583eb6146102be57806337075a90146102dc576101c2565b806324b85d33116101a057806324b85d331461021a57806327c2f17c146102385780632dc0325914610254578063325e609e14610270576101c2565b80630a2bdbd3146101c65780630a71096e146101e25780630f0f7584146101fe575b5f5ffd5b6101e060048036038101906101db9190611887565b610549565b005b6101fc60048036038101906101f79190611887565b610555565b005b61021860048036038101906102139190611887565b6105a9565b005b610222610604565b60405161022f91906118ca565b60405180910390f35b610252600480360381019061024d919061190d565b61060a565b005b61026e60048036038101906102699190611887565b61071c565b005b6102786108b6565b60405161028591906118ca565b60405180910390f35b6102a860048036038101906102a39190611887565b6108bd565b6040516102b59190611965565b60405180910390f35b6102c6610909565b6040516102d391906119f8565b60405180910390f35b6102e461092e565b6040516102f191906118ca565b60405180910390f35b610302610934565b60405161030f91906118ca565b60405180910390f35b610332600480360381019061032d9190611a4c565b61093a565b005b61034e60048036038101906103499190611afd565b610c8b565b005b610358610e43565b6040516103659190611b68565b60405180910390f35b610376610e68565b60405161038391906118ca565b60405180910390f35b6103a660048036038101906103a19190611afd565b610e6d565b6040516103b4929190611bf1565b60405180910390f35b6103d760048036038101906103d2919061190d565b610e9d565b005b6103e1610ff5565b6040516103ee91906118ca565b60405180910390f35b6103ff611094565b60405161040c9190611c2e565b60405180910390f35b61041d6110b9565b60405161042a91906118ca565b60405180910390f35b61043b6110be565b60405161044891906118ca565b60405180910390f35b6104596110c4565b60405161046691906118ca565b60405180910390f35b6104896004803603810190610484919061190d565b6110ca565b005b6104a560048036038101906104a09190611887565b611227565b6040516104b796959493929190611c47565b60405180910390f35b6104c861128b565b6040516104d591906118ca565b60405180910390f35b6104f860048036038101906104f39190611ca6565b611291565b005b610514600480360381019061050f9190611887565b61156f565b60405161052191906118ca565b60405180910390f35b6105326115a5565b604051610540929190611cec565b60405180910390f35b610552816116d4565b50565b61055e816108bd565b61059d576040517f08c379a000000000000000000000000000000000000000000000000000000000815260040161059490611d6d565b60405180910390fd5b6105a6816117be565b50565b5f60045f8381526020019081526020015f209050817fe55b82659159523ba891446c25dd0669662e4575af635eec2baf50653f2bbc2c825f01548360020154426040516105f893929190611d8b565b60405180910390a25050565b61138881565b5f60045f8481526020019081526020015f2090508060040160149054906101000a900460ff1661066f576040517f08c379a000000000000000000000000000000000000000000000000000000000815260040161066690611e0a565b60405180910390fd5b610678836116d4565b80600201548211156106bf576040517f08c379a00000000000000000000000000000000000000000000000000000000081526004016106b690611e72565b60405180910390fd5b81816002015f8282546106d29190611ebd565b92505081905550827fe834157a66d56f162b20e8ec53ff3badeb8678ad53c15482fc0f9104f83fc66683836002015460405161070f929190611ef0565b60405180910390a2505050565b60045f8281526020019081526020015f2060040160149054906101000a900460ff161561077e576040517f08c379a000000000000000000000000000000000000000000000000000000000815260040161077590611f61565b60405180910390fd5b6040518060c001604052805f81526020015f81526020015f81526020014281526020013373ffffffffffffffffffffffffffffffffffffffff1681526020016001151581525060045f8381526020019081526020015f205f820151815f01556020820151816001015560408201518160020155606082015181600301556080820151816004015f6101000a81548173ffffffffffffffffffffffffffffffffffffffff021916908373ffffffffffffffffffffffffffffffffffffffff16021790555060a08201518160040160146101000a81548160ff0219169083151502179055509050503373ffffffffffffffffffffffffffffffffffffffff16817f721062b12bc7bbdfa151705433822995dfec164dc41489b260563c2c1bf6ee89426040516108ab91906118ca565b60405180910390a350565b6201518081565b5f5f60045f8481526020019081526020015f2090508060040160149054906101000a900460ff166108f1575f915050610904565b6108fa8361156f565b8160020154119150505b919050565b60015f9054906101000a900473ffffffffffffffffffffffffffffffffffffffff1681565b60065481565b60055481565b5f60045f8581526020019081526020015f2090508060040160149054906101000a900460ff1661099f576040517f08c379a000000000000000000000000000000000000000000000000000000000815260040161099690611e0a565b60405180910390fd5b6109a8846116d4565b5f8160020154146109ee576040517f08c379a00000000000000000000000000000000000000000000000000000000081526004016109e590611fc9565b60405180910390fd5b805f0154831115610a34576040517f08c379a0000000000000000000000000000000000000000000000000000000008152600401610a2b90612031565b60405180910390fd5b82815f015f828254610a469190611ebd565b925050819055505f61271060c885610a5e919061204f565b610a6891906120bd565b9050806006541015610aaf576040517f08c379a0000000000000000000000000000000000000000000000000000000008152600401610aa690612137565b60405180910390fd5b8060065f828254610ac09190611ebd565b9250508190555060025f9054906101000a900473ffffffffffffffffffffffffffffffffffffffff1673ffffffffffffffffffffffffffffffffffffffff1663a9059cbb84836040518363ffffffff1660e01b8152600401610b23929190612155565b6020604051808303815f875af1158015610b3f573d5f5f3e3d5ffd5b505050506040513d601f19601f82011682018060405250810190610b6391906121a6565b507fe3402c9b6dd2b0b60f7a80d44e371102b78dad46df220a61f8a3cf8a7f1ad9ed60025f9054906101000a900473ffffffffffffffffffffffffffffffffffffffff1673ffffffffffffffffffffffffffffffffffffffff166370a08231306040518263ffffffff1660e01b8152600401610bdf9190611c2e565b602060405180830381865afa158015610bfa573d5f5f3e3d5ffd5b505050506040513d601f19601f82011682018060405250810190610c1e91906121e5565b42604051610c2d929190611ef0565b60405180910390a18273ffffffffffffffffffffffffffffffffffffffff16857f7bc99555a3551f7af5c9766d73b50823d8cc5709a24fe9a20c0d6a42483c455686604051610c7c91906118ca565b60405180910390a35050505050565b620151805f5442610c9c9190611ebd565b10610ca857425f819055505b5f6005540315610e3f575f670de0b6b3a764000090505f60055490505f8282610cd191906120bd565b90505f6005819055508060065f828254610ceb9190612210565b925050819055507f9ffa86c21f664d4d39e98a945bcc31bdd84c2605796f10b28da95c1bf269caf682828542604051610d279493929190612243565b60405180910390a17f7783e6b135c3c54d0fcda67dcdd123aef19a07c5bed31b6ef27e3bea4f68359981600654604051610d62929190611ef0565b60405180910390a17fe3402c9b6dd2b0b60f7a80d44e371102b78dad46df220a61f8a3cf8a7f1ad9ed60025f9054906101000a900473ffffffffffffffffffffffffffffffffffffffff1673ffffffffffffffffffffffffffffffffffffffff166370a08231306040518263ffffffff1660e01b8152600401610de59190611c2e565b602060405180830381865afa158015610e00573d5f5f3e3d5ffd5b505050506040513d601f19601f82011682018060405250810190610e2491906121e5565b42604051610e33929190611ef0565b60405180910390a15050505b5050565b60025f9054906101000a900473ffffffffffffffffffffffffffffffffffffffff1681565b60c881565b5f60605f620151805f5442610e829190611ebd565b101590505f6005541180610e935750805b9250509250929050565b5f60045f8481526020019081526020015f2090508060040160149054906101000a900460ff16610f02576040517f08c379a0000000000000000000000000000000000000000000000000000000008152600401610ef990611e0a565b60405180910390fd5b5f6127106101f484610f14919061204f565b610f1e91906120bd565b90505f8184610f2d9190611ebd565b905080835f015f828254610f419190612210565b925050819055508160055f828254610f599190612210565b925050819055503373ffffffffffffffffffffffffffffffffffffffff16857feb4546db4bdf5a78ab10e4d3a3d1866dddab7cc48970617ac1ab8bc90c9eb706868585604051610fab93929190611d8b565b60405180910390a37f0d2bebd28f3a6fb129d002bfb6c00b64433850c74f15d9db05d772e26329d0f282600554604051610fe6929190611ef0565b60405180910390a15050505050565b5f60025f9054906101000a900473ffffffffffffffffffffffffffffffffffffffff1673ffffffffffffffffffffffffffffffffffffffff166370a08231306040518263ffffffff1660e01b81526004016110509190611c2e565b602060405180830381865afa15801561106b573d5f5f3e3d5ffd5b505050506040513d601f19601f8201168201806040525081019061108f91906121e5565b905090565b60035f9054906101000a900473ffffffffffffffffffffffffffffffffffffffff1681565b5f5481565b6103e881565b6101f481565b5f60045f8481526020019081526020015f2090508060040160149054906101000a900460ff1661112f576040517f08c379a000000000000000000000000000000000000000000000000000000000815260040161112690611e0a565b60405180910390fd5b611138836116d4565b6111418361156f565b8282600201546111519190612210565b1115611192576040517f08c379a0000000000000000000000000000000000000000000000000000000008152600401611189906122d0565b60405180910390fd5b81816002015f8282546111a59190612210565b92505081905550827f465b1131e684f366642a914702cae4dc3dc3baf0d62b32b18dcab8d94fcd839b836040516111dc91906118ca565b60405180910390a2827ff632cbaba925ced4fa52c0577da344d0a67f1d6a8cb6e713a507907f1de7daa783836002015460405161121a929190611ef0565b60405180910390a2505050565b6004602052805f5260405f205f91509050805f015490806001015490806002015490806003015490806004015f9054906101000a900473ffffffffffffffffffffffffffffffffffffffff16908060040160149054906101000a900460ff16905086565b61271081565b60035f9054906101000a900473ffffffffffffffffffffffffffffffffffffffff1673ffffffffffffffffffffffffffffffffffffffff163373ffffffffffffffffffffffffffffffffffffffff1614611320576040517f08c379a000000000000000000000000000000000000000000000000000000000815260040161131790612338565b60405180910390fd5b5f60055411611364576040517f08c379a000000000000000000000000000000000000000000000000000000000815260040161135b906123a0565b60405180910390fd5b5f60055490505f828261137791906120bd565b90505f6005819055508060065f8282546113919190612210565b9250508190555060025f9054906101000a900473ffffffffffffffffffffffffffffffffffffffff1673ffffffffffffffffffffffffffffffffffffffff166340c10f1930836040518363ffffffff1660e01b81526004016113f4929190612155565b5f604051808303815f87803b15801561140b575f5ffd5b505af115801561141d573d5f5f3e3d5ffd5b505050507fe3402c9b6dd2b0b60f7a80d44e371102b78dad46df220a61f8a3cf8a7f1ad9ed60025f9054906101000a900473ffffffffffffffffffffffffffffffffffffffff1673ffffffffffffffffffffffffffffffffffffffff166370a08231306040518263ffffffff1660e01b815260040161149c9190611c2e565b602060405180830381865afa1580156114b7573d5f5f3e3d5ffd5b505050506040513d601f19601f820116820180604052508101906114db91906121e5565b426040516114ea929190611ef0565b60405180910390a17f9ffa86c21f664d4d39e98a945bcc31bdd84c2605796f10b28da95c1bf269caf6828285426040516115279493929190612243565b60405180910390a17f7783e6b135c3c54d0fcda67dcdd123aef19a07c5bed31b6ef27e3bea4f68359981600654604051611562929190611ef0565b60405180910390a1505050565b5f61271061138860045f8581526020019081526020015f205f0154611594919061204f565b61159e91906120bd565b9050919050565b5f5f5f60015f9054906101000a900473ffffffffffffffffffffffffffffffffffffffff1673ffffffffffffffffffffffffffffffffffffffff1663feaf968c6040518163ffffffff1660e01b815260040160a060405180830381865afa158015611612573d5f5f3e3d5ffd5b505050506040513d601f19601f820116820180604052508101906116369190612430565b5050509150508060015f9054906101000a900473ffffffffffffffffffffffffffffffffffffffff1673ffffffffffffffffffffffffffffffffffffffff1663313ce5676040518163ffffffff1660e01b8152600401602060405180830381865afa1580156116a7573d5f5f3e3d5ffd5b505050506040513d601f19601f820116820180604052508101906116cb91906124d1565b92509250509091565b5f60045f8381526020019081526020015f2090505f8160030154426116f99190611ebd565b90505f81148061170c57505f8260020154145b156117185750506117bb565b5f6301e1338061271061172b919061204f565b826103e8856002015461173e919061204f565b611748919061204f565b61175291906120bd565b905080836002015f8282546117679190612210565b92505081905550428360030181905550837f6b2411f406d2b148b1d125fd556eac8c8002f943dd2c42070970e36d5c76bbc0828560020154426040516117af93929190611d8b565b60405180910390a25050505b50565b5f60045f8381526020019081526020015f2090505f815f015490505f826002015490505f835f01819055505f83600201819055508160055f8282546118039190612210565b92505081905550837fd1dcaae04ae5f4affc071caf72fd2e92ab34937bd305b73552cd9e3fa092403c82844260405161183e93929190611d8b565b60405180910390a250505050565b5f5ffd5b5f5ffd5b5f819050919050565b61186681611854565b8114611870575f5ffd5b50565b5f813590506118818161185d565b92915050565b5f6020828403121561189c5761189b61184c565b5b5f6118a984828501611873565b91505092915050565b5f819050919050565b6118c4816118b2565b82525050565b5f6020820190506118dd5f8301846118bb565b92915050565b6118ec816118b2565b81146118f6575f5ffd5b50565b5f81359050611907816118e3565b92915050565b5f5f604083850312156119235761192261184c565b5b5f61193085828601611873565b9250506020611941858286016118f9565b9150509250929050565b5f8115159050919050565b61195f8161194b565b82525050565b5f6020820190506119785f830184611956565b92915050565b5f73ffffffffffffffffffffffffffffffffffffffff82169050919050565b5f819050919050565b5f6119c06119bb6119b68461197e565b61199d565b61197e565b9050919050565b5f6119d1826119a6565b9050919050565b5f6119e2826119c7565b9050919050565b6119f2816119d8565b82525050565b5f602082019050611a0b5f8301846119e9565b92915050565b5f611a1b8261197e565b9050919050565b611a2b81611a11565b8114611a35575f5ffd5b50565b5f81359050611a4681611a22565b92915050565b5f5f5f60608486031215611a6357611a6261184c565b5b5f611a7086828701611873565b9350506020611a81868287016118f9565b9250506040611a9286828701611a38565b9150509250925092565b5f5ffd5b5f5ffd5b5f5ffd5b5f5f83601f840112611abd57611abc611a9c565b5b8235905067ffffffffffffffff811115611ada57611ad9611aa0565b5b602083019150836001820283011115611af657611af5611aa4565b5b9250929050565b5f5f60208385031215611b1357611b1261184c565b5b5f83013567ffffffffffffffff811115611b3057611b2f611850565b5b611b3c85828601611aa8565b92509250509250929050565b5f611b52826119c7565b9050919050565b611b6281611b48565b82525050565b5f602082019050611b7b5f830184611b59565b92915050565b5f81519050919050565b5f82825260208201905092915050565b8281835e5f83830152505050565b5f601f19601f8301169050919050565b5f611bc382611b81565b611bcd8185611b8b565b9350611bdd818560208601611b9b565b611be681611ba9565b840191505092915050565b5f604082019050611c045f830185611956565b8181036020830152611c168184611bb9565b90509392505050565b611c2881611a11565b82525050565b5f602082019050611c415f830184611c1f565b92915050565b5f60c082019050611c5a5f8301896118bb565b611c6760208301886118bb565b611c7460408301876118bb565b611c8160608301866118bb565b611c8e6080830185611c1f565b611c9b60a0830184611956565b979650505050505050565b5f60208284031215611cbb57611cba61184c565b5b5f611cc8848285016118f9565b91505092915050565b5f60ff82169050919050565b611ce681611cd1565b82525050565b5f604082019050611cff5f8301856118bb565b611d0c6020830184611cdd565b9392505050565b5f82825260208201905092915050565b7f4e6f74206c6971756964617461626c65000000000000000000000000000000005f82015250565b5f611d57601083611d13565b9150611d6282611d23565b602082019050919050565b5f6020820190508181035f830152611d8481611d4b565b9050919050565b5f606082019050611d9e5f8301866118bb565b611dab60208301856118bb565b611db860408301846118bb565b949350505050565b7f55736572206e6f7420666f756e640000000000000000000000000000000000005f82015250565b5f611df4600e83611d13565b9150611dff82611dc0565b602082019050919050565b5f6020820190508181035f830152611e2181611de8565b9050919050565b7f546f6f206d7563680000000000000000000000000000000000000000000000005f82015250565b5f611e5c600883611d13565b9150611e6782611e28565b602082019050919050565b5f6020820190508181035f830152611e8981611e50565b9050919050565b7f4e487b71000000000000000000000000000000000000000000000000000000005f52601160045260245ffd5b5f611ec7826118b2565b9150611ed2836118b2565b9250828203905081811115611eea57611ee9611e90565b5b92915050565b5f604082019050611f035f8301856118bb565b611f1060208301846118bb565b9392505050565b7f55736572206578697374730000000000000000000000000000000000000000005f82015250565b5f611f4b600b83611d13565b9150611f5682611f17565b602082019050919050565b5f6020820190508181035f830152611f7881611f3f565b9050919050565b7f4f75747374616e64696e67206c6f616e000000000000000000000000000000005f82015250565b5f611fb3601083611d13565b9150611fbe82611f7f565b602082019050919050565b5f6020820190508181035f830152611fe081611fa7565b9050919050565b7f496e73756666696369656e742062616c616e63650000000000000000000000005f82015250565b5f61201b601483611d13565b915061202682611fe7565b602082019050919050565b5f6020820190508181035f8301526120488161200f565b9050919050565b5f612059826118b2565b9150612064836118b2565b9250828202612072816118b2565b9150828204841483151761208957612088611e90565b5b5092915050565b7f4e487b71000000000000000000000000000000000000000000000000000000005f52601260045260245ffd5b5f6120c7826118b2565b91506120d2836118b2565b9250826120e2576120e1612090565b5b828204905092915050565b7f496e73756666696369656e74207969656c6400000000000000000000000000005f82015250565b5f612121601283611d13565b915061212c826120ed565b602082019050919050565b5f6020820190508181035f83015261214e81612115565b9050919050565b5f6040820190506121685f830185611c1f565b61217560208301846118bb565b9392505050565b6121858161194b565b811461218f575f5ffd5b50565b5f815190506121a08161217c565b92915050565b5f602082840312156121bb576121ba61184c565b5b5f6121c884828501612192565b91505092915050565b5f815190506121df816118e3565b92915050565b5f602082840312156121fa576121f961184c565b5b5f612207848285016121d1565b91505092915050565b5f61221a826118b2565b9150612225836118b2565b925082820190508082111561223d5761223c611e90565b5b92915050565b5f6080820190506122565f8301876118bb565b61226360208301866118bb565b61227060408301856118bb565b61227d60608301846118bb565b95945050505050565b7f4578636565647320626f72726f77206c696d69740000000000000000000000005f82015250565b5f6122ba601483611d13565b91506122c582612286565b602082019050919050565b5f6020820190508181035f8301526122e7816122ae565b9050919050565b7f4e6f74206f776e657200000000000000000000000000000000000000000000005f82015250565b5f612322600983611d13565b915061232d826122ee565b602082019050919050565b5f6020820190508181035f83015261234f81612316565b9050919050565b7f4e6f2066656573000000000000000000000000000000000000000000000000005f82015250565b5f61238a600783611d13565b915061239582612356565b602082019050919050565b5f6020820190508181035f8301526123b78161237e565b9050919050565b5f69ffffffffffffffffffff82169050919050565b6123dc816123be565b81146123e6575f5ffd5b50565b5f815190506123f7816123d3565b92915050565b5f819050919050565b61240f816123fd565b8114612419575f5ffd5b50565b5f8151905061242a81612406565b92915050565b5f5f5f5f5f60a086880312156124495761244861184c565b5b5f612456888289016123e9565b95505060206124678882890161241c565b9450506040612478888289016121d1565b9350506060612489888289016121d1565b925050608061249a888289016123e9565b9150509295509295909350565b6124b081611cd1565b81146124ba575f5ffd5b50565b5f815190506124cb816124a7565b92915050565b5f602082840312156124e6576124e561184c565b5b5f6124f3848285016124bd565b9150509291505056fea26469706673582212201a0b01def8f03d407159a2e63975786725baed43316d236426a1bda3c5f5a6f464736f6c63430008210033","linkReferences":{}},"methodIdentifiers":{"ANNUAL_INTEREST_BPS()":"b5f397e7","BORROW_LIMIT_BPS()":"24b85d33","BPS_DENOMINATOR()":"e1a45218","FEE_BPS()":"bf333f2c","INTEREST_INTERVAL()":"325e609e","WITHDRAW_BONUS_BPS()":"6b13da09","accrueInterest(bytes32)":"0a2bdbd3","checkUpkeep(bytes)":"6e04ff0d","convertFeesAndStake(uint256)":"f060eb13","emitUserState(bytes32)":"0f0f7584","getUGXtoUSD()":"f8a40975","isLiquidatable(bytes32)":"355f8990","lastGlobalInterestRun()":"a4a62247","liquidToken()":"66cd5dc7","liquidate(bytes32)":"0a71096e","maxBorrowable(bytes32)":"f79b6707","owner()":"8da5cb5b","performUpkeep(bytes)":"4585e33b","protocolFeePool()":"3ad38d8e","protocolLiquidBalance()":"8afa50cd","recordDeposit(bytes32,uint256)":"8972103c","registerUser(bytes32)":"2dc03259","repayLoan(bytes32,uint256)":"27c2f17c","requestLoan(bytes32,uint256)":"c5edf84b","totalLiquidStaked()":"37075a90","ugxUsdFeed()":"36583eb6","users(bytes32)":"cea6ab98","withdraw(bytes32,uint256,address)":"3adab09c"},"id":26}